{
  "contractName": "Stakeable",
  "abi": [
    {
      "inputs": [
        {
          "internalType": "contract EmpireToken",
          "name": "_token",
          "type": "address"
        }
      ],
      "stateMutability": "payable",
      "type": "constructor",
      "payable": true
    },
    {
      "anonymous": false,
      "inputs": [
        {
          "indexed": true,
          "internalType": "address",
          "name": "user",
          "type": "address"
        },
        {
          "indexed": false,
          "internalType": "uint256",
          "name": "amount",
          "type": "uint256"
        },
        {
          "indexed": false,
          "internalType": "uint256",
          "name": "index",
          "type": "uint256"
        },
        {
          "indexed": false,
          "internalType": "uint256",
          "name": "timestamp",
          "type": "uint256"
        }
      ],
      "name": "Staked",
      "type": "event"
    },
    {
      "anonymous": false,
      "inputs": [
        {
          "indexed": true,
          "internalType": "address",
          "name": "user",
          "type": "address"
        },
        {
          "indexed": false,
          "internalType": "uint256",
          "name": "reward",
          "type": "uint256"
        },
        {
          "indexed": false,
          "internalType": "uint256",
          "name": "ethstake",
          "type": "uint256"
        },
        {
          "indexed": false,
          "internalType": "uint256",
          "name": "index_user",
          "type": "uint256"
        }
      ],
      "name": "withdrawStakeEvent",
      "type": "event"
    },
    {
      "inputs": [],
      "name": "getLatestPrice",
      "outputs": [
        {
          "internalType": "uint256",
          "name": "",
          "type": "uint256"
        }
      ],
      "stateMutability": "view",
      "type": "function",
      "constant": true
    },
    {
      "inputs": [],
      "name": "rewardTokenInstance",
      "outputs": [
        {
          "internalType": "contract EmpireToken",
          "name": "",
          "type": "address"
        }
      ],
      "stateMutability": "view",
      "type": "function",
      "constant": true
    },
    {
      "inputs": [],
      "name": "stake",
      "outputs": [],
      "stateMutability": "payable",
      "type": "function",
      "payable": true
    },
    {
      "inputs": [
        {
          "internalType": "uint256",
          "name": "amount",
          "type": "uint256"
        }
      ],
      "name": "withdrawStake",
      "outputs": [],
      "stateMutability": "payable",
      "type": "function",
      "payable": true
    },
    {
      "inputs": [
        {
          "internalType": "address",
          "name": "_staker",
          "type": "address"
        }
      ],
      "name": "hasStake",
      "outputs": [
        {
          "components": [
            {
              "internalType": "uint256",
              "name": "total_amount",
              "type": "uint256"
            },
            {
              "components": [
                {
                  "internalType": "address",
                  "name": "user",
                  "type": "address"
                },
                {
                  "internalType": "uint256",
                  "name": "amount",
                  "type": "uint256"
                },
                {
                  "internalType": "uint256",
                  "name": "since",
                  "type": "uint256"
                },
                {
                  "internalType": "uint256",
                  "name": "claimable",
                  "type": "uint256"
                }
              ],
              "internalType": "struct Stakeable.Stake[]",
              "name": "stakes",
              "type": "tuple[]"
            }
          ],
          "internalType": "struct Stakeable.StakingSummary",
          "name": "",
          "type": "tuple"
        }
      ],
      "stateMutability": "view",
      "type": "function",
      "constant": true
    },
    {
      "inputs": [],
      "name": "infosStaker",
      "outputs": [
        {
          "components": [
            {
              "internalType": "address",
              "name": "user",
              "type": "address"
            },
            {
              "internalType": "uint256",
              "name": "amount",
              "type": "uint256"
            },
            {
              "internalType": "uint256",
              "name": "since",
              "type": "uint256"
            },
            {
              "internalType": "uint256",
              "name": "claimable",
              "type": "uint256"
            }
          ],
          "internalType": "struct Stakeable.Stake[]",
          "name": "",
          "type": "tuple[]"
        }
      ],
      "stateMutability": "view",
      "type": "function",
      "constant": true
    }
  ],
  "bytecode": "0x6080604052600a60025560405162001ab938038062001ab983398181016040528101906200002e919062000166565b739326bfa02add2366b30bacb125260af6410313316000806101000a81548173ffffffffffffffffffffffffffffffffffffffff021916908373ffffffffffffffffffffffffffffffffffffffff16021790555080600360006101000a81548173ffffffffffffffffffffffffffffffffffffffff021916908373ffffffffffffffffffffffffffffffffffffffff1602179055506004600181600181540180825580915050039060005260206000209050505062000198565b600080fd5b600073ffffffffffffffffffffffffffffffffffffffff82169050919050565b60006200011a82620000ed565b9050919050565b60006200012e826200010d565b9050919050565b620001408162000121565b81146200014c57600080fd5b50565b600081519050620001608162000135565b92915050565b6000602082840312156200017f576200017e620000e8565b5b60006200018f848285016200014f565b91505092915050565b61191180620001a86000396000f3fe608060405260043610610072576000357c01000000000000000000000000000000000000000000000000000000009004806325d5971f146100775780633a4b66f114610093578063494aab5a1461009d57806365293f1a146100c85780638e15f473146100f3578063e73e14bf1461011e575b600080fd5b610091600480360381019061008c9190610ebe565b61015b565b005b61009b6102c9565b005b3480156100a957600080fd5b506100b2610419565b6040516100bf9190610f6a565b60405180910390f35b3480156100d457600080fd5b506100dd61043f565b6040516100ea91906110b9565b60405180910390f35b3480156100ff57600080fd5b5061010861057a565b60405161011591906110ea565b60405180910390f35b34801561012a57600080fd5b5061014560048036038101906101409190611131565b610652565b604051610152919061120a565b60405180910390f35b60008061016983600061085f565b915091503373ffffffffffffffffffffffffffffffffffffffff167fa4c7f840af8c2f927e6bee34b6182edb708ae0107cf76f6c8553d1e6c31f6d8f828460006040516101b893929190611267565b60405180910390a2600360009054906101000a900473ffffffffffffffffffffffffffffffffffffffff1673ffffffffffffffffffffffffffffffffffffffff1663a9059cbb33836040518363ffffffff167c01000000000000000000000000000000000000000000000000000000000281526004016102399291906112ad565b6020604051808303816000875af1158015610258573d6000803e3d6000fd5b505050506040513d601f19601f8201168201806040525081019061027c919061130e565b503373ffffffffffffffffffffffffffffffffffffffff166108fc839081150290604051600060405180830381858888f193505050501580156102c3573d6000803e3d6000fd5b50505050565b67016345785d8a0000341015610314576040517f08c379a000000000000000000000000000000000000000000000000000000000815260040161030b906113be565b60405180910390fd5b6064600360009054906101000a900473ffffffffffffffffffffffffffffffffffffffff1673ffffffffffffffffffffffffffffffffffffffff166370a08231306040518263ffffffff167c010000000000000000000000000000000000000000000000000000000002815260040161038d91906113de565b602060405180830381865afa1580156103aa573d6000803e3d6000fd5b505050506040513d601f19601f820116820180604052508101906103ce919061140e565b1161040e576040517f08c379a000000000000000000000000000000000000000000000000000000000815260040161040590611487565b60405180910390fd5b61041734610b23565b565b600360009054906101000a900473ffffffffffffffffffffffffffffffffffffffff1681565b60606000600560003373ffffffffffffffffffffffffffffffffffffffff1673ffffffffffffffffffffffffffffffffffffffff16815260200190815260200160002054905060048181548110610499576104986114a7565b5b9060005260206000209060020201600101805480602002602001604051908101604052809291908181526020016000905b8282101561057057838290600052602060002090600402016040518060800160405290816000820160009054906101000a900473ffffffffffffffffffffffffffffffffffffffff1673ffffffffffffffffffffffffffffffffffffffff1673ffffffffffffffffffffffffffffffffffffffff1681526020016001820154815260200160028201548152602001600382015481525050815260200190600101906104ca565b5050505091505090565b60008060008060008060008054906101000a900473ffffffffffffffffffffffffffffffffffffffff1673ffffffffffffffffffffffffffffffffffffffff1663feaf968c6040518163ffffffff167c010000000000000000000000000000000000000000000000000000000002815260040160a060405180830381865afa15801561060a573d6000803e3d6000fd5b505050506040513d601f19601f8201168201806040525081019061062e919061154e565b945094509450945094506305f5e100846106489190611627565b9550505050505090565b61065a610e69565b6000806040518060400160405280600081526020016004600560008873ffffffffffffffffffffffffffffffffffffffff1673ffffffffffffffffffffffffffffffffffffffff16815260200190815260200160002054815481106106c2576106c16114a7565b5b9060005260206000209060020201600101805480602002602001604051908101604052809291908181526020016000905b8282101561079957838290600052602060002090600402016040518060800160405290816000820160009054906101000a900473ffffffffffffffffffffffffffffffffffffffff1673ffffffffffffffffffffffffffffffffffffffff1673ffffffffffffffffffffffffffffffffffffffff1681526020016001820154815260200160028201548152602001600382015481525050815260200190600101906106f3565b50505050815250905060005b81602001515181101561084a5760006107db836020015183815181106107ce576107cd6114a7565b5b6020026020010151610d08565b905080836020015183815181106107f5576107f46114a7565b5b602002602001015160600181815250508260200151828151811061081c5761081b6114a7565b5b602002602001015160200151846108339190611691565b9350506001816108439190611691565b90506107a5565b50818160000181815250508092505050919050565b6000806000600560003373ffffffffffffffffffffffffffffffffffffffff1673ffffffffffffffffffffffffffffffffffffffff1681526020019081526020016000205490506000600482815481106108bc576108bb6114a7565b5b906000526020600020906002020160010185815481106108df576108de6114a7565b5b90600052602060002090600402016040518060800160405290816000820160009054906101000a900473ffffffffffffffffffffffffffffffffffffffff1673ffffffffffffffffffffffffffffffffffffffff1673ffffffffffffffffffffffffffffffffffffffff1681526020016001820154815260200160028201548152602001600382015481525050905085816020015110156109b5576040517f08c379a00000000000000000000000000000000000000000000000000000000081526004016109ac90611759565b60405180910390fd5b60006109c082610d08565b90508682602001516109d29190611779565b826020018181525050600082602001511415610a7457600483815481106109fc576109fb6114a7565b5b90600052602060002090600202016001018681548110610a1f57610a1e6114a7565b5b9060005260206000209060040201600080820160006101000a81549073ffffffffffffffffffffffffffffffffffffffff02191690556001820160009055600282016000905560038201600090555050610b13565b816020015160048481548110610a8d57610a8c6114a7565b5b90600052602060002090600202016001018781548110610ab057610aaf6114a7565b5b9060005260206000209060040201600101819055504260048481548110610ada57610ad96114a7565b5b90600052602060002090600202016001018781548110610afd57610afc6114a7565b5b9060005260206000209060040201600201819055505b8681945094505050509250929050565b60008111610b66576040517f08c379a0000000000000000000000000000000000000000000000000000000008152600401610b5d906117f9565b60405180910390fd5b6000600560003373ffffffffffffffffffffffffffffffffffffffff1673ffffffffffffffffffffffffffffffffffffffff16815260200190815260200160002054905060004290506000821415610bc457610bc133610d82565b91505b60048281548110610bd857610bd76114a7565b5b906000526020600020906002020160010160405180608001604052803373ffffffffffffffffffffffffffffffffffffffff1681526020018581526020018381526020016000815250908060018154018082558091505060019003906000526020600020906004020160009091909190915060008201518160000160006101000a81548173ffffffffffffffffffffffffffffffffffffffff021916908373ffffffffffffffffffffffffffffffffffffffff16021790555060208201518160010155604082015181600201556060820151816003015550503373ffffffffffffffffffffffffffffffffffffffff167fb4caaf29adda3eefee3ad552a8e85058589bf834c7466cae4ee58787f70589ed848484604051610cfb93929190611819565b60405180910390a2505050565b60008068925e06eec972b0000090506000678ac7230489e80000905060008183610d329190611850565b9050806103e88660200151610e10886040015142610d509190611779565b610d5a9190611850565b610d649190611881565b610d6e9190611850565b610d789190611881565b9350505050919050565b600060046001816001815401808255809150500390600052602060002090505060006001600480549050610db69190611779565b90508260048281548110610dcd57610dcc6114a7565b5b906000526020600020906002020160000160006101000a81548173ffffffffffffffffffffffffffffffffffffffff021916908373ffffffffffffffffffffffffffffffffffffffff16021790555080600560008573ffffffffffffffffffffffffffffffffffffffff1673ffffffffffffffffffffffffffffffffffffffff1681526020019081526020016000208190555080915050919050565b604051806040016040528060008152602001606081525090565b600080fd5b6000819050919050565b610e9b81610e88565b8114610ea657600080fd5b50565b600081359050610eb881610e92565b92915050565b600060208284031215610ed457610ed3610e83565b5b6000610ee284828501610ea9565b91505092915050565b600073ffffffffffffffffffffffffffffffffffffffff82169050919050565b6000819050919050565b6000610f30610f2b610f2684610eeb565b610f0b565b610eeb565b9050919050565b6000610f4282610f15565b9050919050565b6000610f5482610f37565b9050919050565b610f6481610f49565b82525050565b6000602082019050610f7f6000830184610f5b565b92915050565b600081519050919050565b600082825260208201905092915050565b6000819050602082019050919050565b6000610fbc82610eeb565b9050919050565b610fcc81610fb1565b82525050565b610fdb81610e88565b82525050565b608082016000820151610ff76000850182610fc3565b50602082015161100a6020850182610fd2565b50604082015161101d6040850182610fd2565b5060608201516110306060850182610fd2565b50505050565b60006110428383610fe1565b60808301905092915050565b6000602082019050919050565b600061106682610f85565b6110708185610f90565b935061107b83610fa1565b8060005b838110156110ac5781516110938882611036565b975061109e8361104e565b92505060018101905061107f565b5085935050505092915050565b600060208201905081810360008301526110d3818461105b565b905092915050565b6110e481610e88565b82525050565b60006020820190506110ff60008301846110db565b92915050565b61110e81610fb1565b811461111957600080fd5b50565b60008135905061112b81611105565b92915050565b60006020828403121561114757611146610e83565b5b60006111558482850161111c565b91505092915050565b600082825260208201905092915050565b600061117a82610f85565b611184818561115e565b935061118f83610fa1565b8060005b838110156111c05781516111a78882611036565b97506111b28361104e565b925050600181019050611193565b5085935050505092915050565b60006040830160008301516111e56000860182610fd2565b50602083015184820360208601526111fd828261116f565b9150508091505092915050565b6000602082019050818103600083015261122481846111cd565b905092915050565b6000819050919050565b600061125161124c6112478461122c565b610f0b565b610e88565b9050919050565b61126181611236565b82525050565b600060608201905061127c60008301866110db565b61128960208301856110db565b6112966040830184611258565b949350505050565b6112a781610fb1565b82525050565b60006040820190506112c2600083018561129e565b6112cf60208301846110db565b9392505050565b60008115159050919050565b6112eb816112d6565b81146112f657600080fd5b50565b600081519050611308816112e2565b92915050565b60006020828403121561132457611323610e83565b5b6000611332848285016112f9565b91505092915050565b600082825260208201905092915050565b7f796f752063616e27742073656e74206c657373207468616e20302e312065746860008201527f6572000000000000000000000000000000000000000000000000000000000000602082015250565b60006113a860228361133b565b91506113b38261134c565b604082019050919050565b600060208201905081810360008301526113d78161139b565b9050919050565b60006020820190506113f3600083018461129e565b92915050565b60008151905061140881610e92565b92915050565b60006020828403121561142457611423610e83565b5b6000611432848285016113f9565b91505092915050565b7f537461636b696e6720697320636c6f7365000000000000000000000000000000600082015250565b600061147160118361133b565b915061147c8261143b565b602082019050919050565b600060208201905081810360008301526114a081611464565b9050919050565b7f4e487b7100000000000000000000000000000000000000000000000000000000600052603260045260246000fd5b600069ffffffffffffffffffff82169050919050565b6114f5816114d6565b811461150057600080fd5b50565b600081519050611512816114ec565b92915050565b6000819050919050565b61152b81611518565b811461153657600080fd5b50565b60008151905061154881611522565b92915050565b600080600080600060a0868803121561156a57611569610e83565b5b600061157888828901611503565b955050602061158988828901611539565b945050604061159a888289016113f9565b93505060606115ab888289016113f9565b92505060806115bc88828901611503565b9150509295509295909350565b7f4e487b7100000000000000000000000000000000000000000000000000000000600052601260045260246000fd5b7f4e487b7100000000000000000000000000000000000000000000000000000000600052601160045260246000fd5b600061163282611518565b915061163d83611518565b92508261164d5761164c6115c9565b5b600160000383147f800000000000000000000000000000000000000000000000000000000000000083141615611686576116856115f8565b5b828205905092915050565b600061169c82610e88565b91506116a783610e88565b9250827fffffffffffffffffffffffffffffffffffffffffffffffffffffffffffffffff038211156116dc576116db6115f8565b5b828201905092915050565b7f5374616b696e673a2043616e6e6f74207769746864726177206d6f726520746860008201527f616e20796f752068617665207374616b65640000000000000000000000000000602082015250565b600061174360328361133b565b915061174e826116e7565b604082019050919050565b6000602082019050818103600083015261177281611736565b9050919050565b600061178482610e88565b915061178f83610e88565b9250828210156117a2576117a16115f8565b5b828203905092915050565b7f4e6f7468696e67206973206e6f74207374616b6561626c652021000000000000600082015250565b60006117e3601a8361133b565b91506117ee826117ad565b602082019050919050565b60006020820190508181036000830152611812816117d6565b9050919050565b600060608201905061182e60008301866110db565b61183b60208301856110db565b61184860408301846110db565b949350505050565b600061185b82610e88565b915061186683610e88565b925082611876576118756115c9565b5b828204905092915050565b600061188c82610e88565b915061189783610e88565b9250817fffffffffffffffffffffffffffffffffffffffffffffffffffffffffffffffff04831182151516156118d0576118cf6115f8565b5b82820290509291505056fea2646970667358221220651e6845529b59aa0eaa90e740a8fcc1c60862efb97019f1894394a8d8c9bce164736f6c634300080b0033",
  "immutableReferences": {},
  "source": "// SPDX-License-Identifier: MIT\r\npragma solidity 0.8.11;\r\n\r\n/**\r\n * @notice Stakeable is a contract who is ment to be inherited by other contract that wants Staking capabilities\r\n */\r\nimport \"./PriceConsumerV3.sol\";\r\nimport \"./EmpireToken.sol\";\r\nimport \"@openzeppelin/contracts/utils/math/SafeMath.sol\";\r\n\r\ncontract Stakeable is PriceConsumerV3 {\r\n    using SafeMath for uint256;\r\n    /**\r\n     * @notice\r\n      rewardPerHour is 1000 because it is used to represent 0.001, since we only use integer numbers\r\n      This will give users 0.1% reward for each staked token / H\r\n     */\r\n    uint256 internal rewardPerHour;\r\n    uint256 internal priceEmpireToken = 10;\r\n    EmpireToken public rewardTokenInstance;\r\n\r\n    struct Stake {\r\n        address user;\r\n        uint256 amount;\r\n        uint256 since;\r\n        uint256 claimable;\r\n    }\r\n\r\n    struct StakingSummary {\r\n        uint256 total_amount;\r\n        Stake[] stakes;\r\n    }\r\n\r\n    struct StakeHolder {\r\n        address user;\r\n        Stake[] address_stakes;\r\n    }\r\n\r\n    StakeHolder[] internal stakeholders;\r\n\r\n    //stakes is used to keep track of the INDEX for the stakers in the stakes array\r\n    mapping(address => uint256) internal stakes;\r\n\r\n    event Staked(\r\n        address indexed user,\r\n        uint256 amount,\r\n        uint256 index,\r\n        uint256 timestamp\r\n    );\r\n\r\n    event withdrawStakeEvent(\r\n        address indexed user,\r\n        uint256 reward,\r\n        uint256 ethstake,\r\n        uint256 index_user\r\n    );\r\n\r\n    constructor(EmpireToken _token) payable {\r\n        // This push is needed so we avoid index 0 causing bug of index-1\r\n        rewardTokenInstance = _token;\r\n        stakeholders.push();\r\n    }\r\n\r\n    function stake() public payable {\r\n        require(msg.value >= 0.1 ether, \"you can't sent less than 0.1 ether\");\r\n        require(\r\n            rewardTokenInstance.balanceOf(address(this)) > 100,\r\n            \"Stacking is close\"\r\n        );\r\n\r\n        _stake(msg.value);\r\n    }\r\n\r\n    function _stake(uint256 _amount) internal {\r\n        require(_amount > 0, \"Nothing is not stakeable !\");\r\n        uint256 index = stakes[msg.sender];\r\n        uint256 timestamp = block.timestamp;\r\n\r\n        // if firstime add to the mapping of stakeholder\r\n        if (index == 0) {\r\n            index = _addStakeholder(msg.sender);\r\n        }\r\n\r\n        stakeholders[index].address_stakes.push(\r\n            Stake(msg.sender, _amount, timestamp, 0)\r\n        );\r\n        emit Staked(msg.sender, _amount, index, timestamp);\r\n    }\r\n\r\n    function withdrawStake(uint256 amount) public payable {\r\n        //uint256 stake_index = stakes[msg.sender];\r\n        (uint256 amountETH, uint256 amountReward) = _withdrawStake(amount, 0);\r\n        emit withdrawStakeEvent(msg.sender, amountReward, amountETH, 0);\r\n        rewardTokenInstance.transfer(\r\n            msg.sender,\r\n            amountReward\r\n        );\r\n\r\n        payable(msg.sender).transfer(amountETH);\r\n    }\r\n\r\n    /**\r\n     * @notice\r\n     * withdrawStake takes in an amount and a index of the stake and will remove tokens from that stake\r\n     * Notice index of the stake is the users stake counter, starting at 0 for the first stake\r\n     * Will return the amount to MINT onto the acount\r\n     * Will also calculateStakeReward and reset timer\r\n     */\r\n\r\n    function _withdrawStake(uint256 amount, uint256 index)\r\n        internal\r\n        returns (uint256, uint256)\r\n    {\r\n        // Grab user_index which is the index to use to grab the Stake[]\r\n        uint256 user_index = stakes[msg.sender];\r\n        Stake memory current_stake = stakeholders[user_index].address_stakes[\r\n            index\r\n        ];\r\n        require(\r\n            current_stake.amount >= amount,\r\n            \"Staking: Cannot withdraw more than you have staked\"\r\n        );\r\n\r\n        // Calculate available Reward first before we start modifying data\r\n        uint256 reward = calculateStakeReward(current_stake);\r\n        // Remove by subtracting the money unstaked\r\n        current_stake.amount = current_stake.amount - amount;\r\n        // If stake is empty, 0, then remove it from the array of stakes\r\n        if (current_stake.amount == 0) {\r\n            delete stakeholders[user_index].address_stakes[index];\r\n        } else {\r\n            // If not empty then replace the value of it\r\n            stakeholders[user_index]\r\n                .address_stakes[index]\r\n                .amount = current_stake.amount;\r\n            // Reset timer of stake\r\n            stakeholders[user_index].address_stakes[index].since = block\r\n                .timestamp;\r\n        }\r\n\r\n        return (amount, reward);\r\n    }\r\n\r\n    function _addStakeholder(address staker) internal returns (uint256) {\r\n        // Push a empty item to the Array to make space for our new stakeholder\r\n        stakeholders.push();\r\n        // Calculate the index of the last item in the array by Len-1\r\n        uint256 userIndex = stakeholders.length - 1;\r\n        // Assign the address to the new index\r\n        stakeholders[userIndex].user = staker;\r\n        // Add index to the stakeholders\r\n        stakes[staker] = userIndex;\r\n        return userIndex;\r\n    }\r\n\r\n    function calculateStakeReward(Stake memory _current_stake)\r\n        internal\r\n        view\r\n        returns (uint256)\r\n    {\r\n        uint256 priceETH = 2700e18; //getLatestPrice();\r\n        uint256 priceEmpireToken = 10e18;\r\n        uint256 amountEmpireToken =  priceETH / priceEmpireToken;\r\n        \r\n        \r\n        // First calculate how long the stake has been active\r\n        // Use current seconds since epoch - the seconds since epoch the stake was made\r\n        // The output will be duration in SECONDS ,\r\n        // We will reward the user 0.1% per Hour So thats 0.1% per 3600 seconds\r\n        // the alghoritm is  seconds = block.timestamp - stake seconds (block.timestap - _stake.since)\r\n        // hours = Seconds / 3600 (seconds /3600) 3600 is an variable in Solidity names hours\r\n        // we then multiply each token by the hours staked , then divide by the rewardPerHour rate\r\n        return\r\n            ((((block.timestamp - _current_stake.since) / 1 hours) *\r\n                _current_stake.amount) / 1000) * amountEmpireToken;\r\n    }\r\n\r\n    /**\r\n     * @notice\r\n     * hasStake is used to check if a account has stakes and the total amount along with all the seperate stakes\r\n     */\r\n    function hasStake(address _staker)\r\n        public\r\n        view\r\n        returns (StakingSummary memory)\r\n    {\r\n        // totalStakeAmount is used to count total staked amount of the address\r\n        uint256 totalStakeAmount;\r\n        // Keep a summary in memory since we need to calculate this\r\n        StakingSummary memory summary = StakingSummary(\r\n            0,\r\n            stakeholders[stakes[_staker]].address_stakes\r\n        );\r\n        // Itterate all stakes and grab amount of stakes\r\n        for (uint256 s = 0; s < summary.stakes.length; s += 1) {\r\n            uint256 availableReward = calculateStakeReward(summary.stakes[s]);\r\n            summary.stakes[s].claimable = availableReward;\r\n            totalStakeAmount = totalStakeAmount + summary.stakes[s].amount;\r\n        }\r\n        // Assign calculate amount to summary\r\n        summary.total_amount = totalStakeAmount;\r\n        return summary;\r\n    }\r\n\r\n    function infosStaker() public view returns (Stake[] memory) {\r\n        uint256 index = stakes[msg.sender];\r\n        return stakeholders[index].address_stakes;\r\n    }\r\n}\r\n",
  "sourcePath": "C:\\wamp64\\www\\learnblockchain\\6. Finance\\DEFI\\contracts\\Stakeable.sol",
  "compiler": {
    "name": "solc",
    "version": "0.8.11+commit.d7f03943.Emscripten.clang"
  },
  "schemaVersion": "3.4.3",
  "updatedAt": "2022-02-03T15:03:55.611Z",
  "networkType": "ethereum",
  "devdoc": {
    "kind": "dev",
    "methods": {},
    "version": 1
  },
  "userdoc": {
    "kind": "user",
    "methods": {
      "getLatestPrice()": {
        "notice": "Returns the latest price"
      },
      "hasStake(address)": {
        "notice": "hasStake is used to check if a account has stakes and the total amount along with all the seperate stakes"
      }
    },
    "version": 1
  }
}