{
  "contractName": "Swap",
  "abi": [
    {
      "inputs": [
        {
          "internalType": "contract EmpireToken",
          "name": "_token",
          "type": "address"
        }
      ],
      "stateMutability": "nonpayable",
      "type": "constructor"
    },
    {
      "anonymous": false,
      "inputs": [
        {
          "indexed": false,
          "internalType": "address",
          "name": "account",
          "type": "address"
        },
        {
          "indexed": false,
          "internalType": "address",
          "name": "token",
          "type": "address"
        },
        {
          "indexed": false,
          "internalType": "uint256",
          "name": "amount",
          "type": "uint256"
        },
        {
          "indexed": false,
          "internalType": "uint256",
          "name": "rate",
          "type": "uint256"
        }
      ],
      "name": "TokensPurchase",
      "type": "event"
    },
    {
      "anonymous": false,
      "inputs": [
        {
          "indexed": false,
          "internalType": "address",
          "name": "account",
          "type": "address"
        },
        {
          "indexed": false,
          "internalType": "address",
          "name": "token",
          "type": "address"
        },
        {
          "indexed": false,
          "internalType": "uint256",
          "name": "amount",
          "type": "uint256"
        },
        {
          "indexed": false,
          "internalType": "uint256",
          "name": "rate",
          "type": "uint256"
        }
      ],
      "name": "TokensSold",
      "type": "event"
    },
    {
      "inputs": [],
      "name": "name",
      "outputs": [
        {
          "internalType": "string",
          "name": "",
          "type": "string"
        }
      ],
      "stateMutability": "view",
      "type": "function",
      "constant": true
    },
    {
      "inputs": [],
      "name": "rate",
      "outputs": [
        {
          "internalType": "uint256",
          "name": "",
          "type": "uint256"
        }
      ],
      "stateMutability": "view",
      "type": "function",
      "constant": true
    },
    {
      "inputs": [],
      "name": "rewardTokenInstance",
      "outputs": [
        {
          "internalType": "contract EmpireToken",
          "name": "",
          "type": "address"
        }
      ],
      "stateMutability": "view",
      "type": "function",
      "constant": true
    },
    {
      "inputs": [],
      "name": "buyTokens",
      "outputs": [],
      "stateMutability": "payable",
      "type": "function",
      "payable": true
    },
    {
      "inputs": [
        {
          "internalType": "uint256",
          "name": "_amount",
          "type": "uint256"
        }
      ],
      "name": "sellTokens",
      "outputs": [],
      "stateMutability": "nonpayable",
      "type": "function"
    }
  ],
  "bytecode": "0x60806040526040518060400160405280600c81526020017f417765736f6d65207377617000000000000000000000000000000000000000008152506000908051906020019062000051929190620000d2565b5060646002553480156200006457600080fd5b506040516200108e3803806200108e83398181016040528101906200008a919062000200565b80600160006101000a81548173ffffffffffffffffffffffffffffffffffffffff021916908373ffffffffffffffffffffffffffffffffffffffff1602179055505062000297565b828054620000e09062000261565b90600052602060002090601f01602090048101928262000104576000855562000150565b82601f106200011f57805160ff191683800117855562000150565b8280016001018555821562000150579182015b828111156200014f57825182559160200191906001019062000132565b5b5090506200015f919062000163565b5090565b5b808211156200017e57600081600090555060010162000164565b5090565b600080fd5b600073ffffffffffffffffffffffffffffffffffffffff82169050919050565b6000620001b48262000187565b9050919050565b6000620001c882620001a7565b9050919050565b620001da81620001bb565b8114620001e657600080fd5b50565b600081519050620001fa81620001cf565b92915050565b60006020828403121562000219576200021862000182565b5b60006200022984828501620001e9565b91505092915050565b7f4e487b7100000000000000000000000000000000000000000000000000000000600052602260045260246000fd5b600060028204905060018216806200027a57607f821691505b6020821081141562000291576200029062000232565b5b50919050565b610de780620002a76000396000f3fe608060405260043610610067576000357c01000000000000000000000000000000000000000000000000000000009004806306fdde031461006c5780632c4e722e14610097578063494aab5a146100c25780636c11bcd3146100ed578063d0febe4c14610116575b600080fd5b34801561007857600080fd5b50610081610120565b60405161008e91906107e1565b60405180910390f35b3480156100a357600080fd5b506100ac6101ae565b6040516100b9919061081c565b60405180910390f35b3480156100ce57600080fd5b506100d76101b4565b6040516100e491906108b6565b60405180910390f35b3480156100f957600080fd5b50610114600480360381019061010f9190610902565b6101da565b005b61011e6104ab565b005b6000805461012d9061095e565b80601f01602080910402602001604051908101604052809291908181526020018280546101599061095e565b80156101a65780601f1061017b576101008083540402835291602001916101a6565b820191906000526020600020905b81548152906001019060200180831161018957829003601f168201915b505050505081565b60025481565b600160009054906101000a900473ffffffffffffffffffffffffffffffffffffffff1681565b600160009054906101000a900473ffffffffffffffffffffffffffffffffffffffff1673ffffffffffffffffffffffffffffffffffffffff166370a08231336040518263ffffffff167c010000000000000000000000000000000000000000000000000000000002815260040161025191906109b1565b602060405180830381865afa15801561026e573d6000803e3d6000fd5b505050506040513d601f19601f8201168201806040525081019061029291906109e1565b8111156102d4576040517f08c379a00000000000000000000000000000000000000000000000000000000081526004016102cb90610a5a565b60405180910390fd5b6000600254826102e49190610ad8565b9050803073ffffffffffffffffffffffffffffffffffffffff16311015610340576040517f08c379a000000000000000000000000000000000000000000000000000000000815260040161033790610b55565b60405180910390fd5b600160009054906101000a900473ffffffffffffffffffffffffffffffffffffffff1673ffffffffffffffffffffffffffffffffffffffff166323b872dd3330856040518463ffffffff167c01000000000000000000000000000000000000000000000000000000000281526004016103bb93929190610b75565b6020604051808303816000875af11580156103da573d6000803e3d6000fd5b505050506040513d601f19601f820116820180604052508101906103fe9190610be4565b503373ffffffffffffffffffffffffffffffffffffffff166108fc829081150290604051600060405180830381858888f19350505050158015610445573d6000803e3d6000fd5b507f697c42d55a5e1fed3f464ec6f38b32546a0bd368dc8068b065c67566d73f329033600160009054906101000a900473ffffffffffffffffffffffffffffffffffffffff168460025460405161049f9493929190610c11565b60405180910390a15050565b600073ffffffffffffffffffffffffffffffffffffffff163373ffffffffffffffffffffffffffffffffffffffff16141561051b576040517f08c379a000000000000000000000000000000000000000000000000000000000815260040161051290610ca2565b60405180910390fd5b60006002543461052b9190610cc2565b905080600160009054906101000a900473ffffffffffffffffffffffffffffffffffffffff1673ffffffffffffffffffffffffffffffffffffffff166370a08231306040518263ffffffff167c01000000000000000000000000000000000000000000000000000000000281526004016105a591906109b1565b602060405180830381865afa1580156105c2573d6000803e3d6000fd5b505050506040513d601f19601f820116820180604052508101906105e691906109e1565b1015610627576040517f08c379a000000000000000000000000000000000000000000000000000000000815260040161061e90610d68565b60405180910390fd5b600160009054906101000a900473ffffffffffffffffffffffffffffffffffffffff1673ffffffffffffffffffffffffffffffffffffffff1663a9059cbb33836040518363ffffffff167c01000000000000000000000000000000000000000000000000000000000281526004016106a0929190610d88565b6020604051808303816000875af11580156106bf573d6000803e3d6000fd5b505050506040513d601f19601f820116820180604052508101906106e39190610be4565b507fbe52c1773bb2528744725b29470d0cb959c94e22fc4817ad800fd3d83816dbad33600160009054906101000a900473ffffffffffffffffffffffffffffffffffffffff168360025460405161073d9493929190610c11565b60405180910390a150565b600081519050919050565b600082825260208201905092915050565b60005b83811015610782578082015181840152602081019050610767565b83811115610791576000848401525b50505050565b6000601f19601f8301169050919050565b60006107b382610748565b6107bd8185610753565b93506107cd818560208601610764565b6107d681610797565b840191505092915050565b600060208201905081810360008301526107fb81846107a8565b905092915050565b6000819050919050565b61081681610803565b82525050565b6000602082019050610831600083018461080d565b92915050565b600073ffffffffffffffffffffffffffffffffffffffff82169050919050565b6000819050919050565b600061087c61087761087284610837565b610857565b610837565b9050919050565b600061088e82610861565b9050919050565b60006108a082610883565b9050919050565b6108b081610895565b82525050565b60006020820190506108cb60008301846108a7565b92915050565b600080fd5b6108df81610803565b81146108ea57600080fd5b50565b6000813590506108fc816108d6565b92915050565b600060208284031215610918576109176108d1565b5b6000610926848285016108ed565b91505092915050565b7f4e487b7100000000000000000000000000000000000000000000000000000000600052602260045260246000fd5b6000600282049050600182168061097657607f821691505b6020821081141561098a5761098961092f565b5b50919050565b600061099b82610837565b9050919050565b6109ab81610990565b82525050565b60006020820190506109c660008301846109a2565b92915050565b6000815190506109db816108d6565b92915050565b6000602082840312156109f7576109f66108d1565b5b6000610a05848285016109cc565b91505092915050565b7f50617320617373657a20646520746f6b656e0000000000000000000000000000600082015250565b6000610a44601283610753565b9150610a4f82610a0e565b602082019050919050565b60006020820190508181036000830152610a7381610a37565b9050919050565b7f4e487b7100000000000000000000000000000000000000000000000000000000600052601260045260246000fd5b7f4e487b7100000000000000000000000000000000000000000000000000000000600052601160045260246000fd5b6000610ae382610803565b9150610aee83610803565b925082610afe57610afd610a7a565b5b828204905092915050565b7f70617320617373657a2064272065746865720000000000000000000000000000600082015250565b6000610b3f601283610753565b9150610b4a82610b09565b602082019050919050565b60006020820190508181036000830152610b6e81610b32565b9050919050565b6000606082019050610b8a60008301866109a2565b610b9760208301856109a2565b610ba4604083018461080d565b949350505050565b60008115159050919050565b610bc181610bac565b8114610bcc57600080fd5b50565b600081519050610bde81610bb8565b92915050565b600060208284031215610bfa57610bf96108d1565b5b6000610c0884828501610bcf565b91505092915050565b6000608082019050610c2660008301876109a2565b610c3360208301866109a2565b610c40604083018561080d565b610c4d606083018461080d565b95945050505050565b7f4d61757661697365206164647265737300000000000000000000000000000000600082015250565b6000610c8c601083610753565b9150610c9782610c56565b602082019050919050565b60006020820190508181036000830152610cbb81610c7f565b9050919050565b6000610ccd82610803565b9150610cd883610803565b9250817fffffffffffffffffffffffffffffffffffffffffffffffffffffffffffffffff0483118215151615610d1157610d10610aa9565b5b828202905092915050565b7f70617320617373657a20646520746f6b656e0000000000000000000000000000600082015250565b6000610d52601283610753565b9150610d5d82610d1c565b602082019050919050565b60006020820190508181036000830152610d8181610d45565b9050919050565b6000604082019050610d9d60008301856109a2565b610daa602083018461080d565b939250505056fea26469706673582212208921af73d537e2dd0eb1a54e6dda19ccf1c8b220debae967bcafe9a4a064336364736f6c634300080b0033",
  "immutableReferences": {},
  "source": "// SPDX-License-Identifier: MIT\r\npragma solidity 0.8.11;\r\nimport \"./EmpireToken.sol\";\r\n\r\ncontract Swap{\r\n    string public name = \"Awesome swap\";\r\n    EmpireToken public rewardTokenInstance;\r\n    uint public rate = 100;\r\n\r\n    event TokensPurchase(\r\n        address account,\r\n        address token,\r\n        uint amount,\r\n        uint rate\r\n    );\r\n\r\n    event TokensSold(\r\n        address account,\r\n        address token,\r\n        uint amount,\r\n        uint rate\r\n    );\r\n\r\n    constructor(EmpireToken _token) {\r\n        rewardTokenInstance = _token;\r\n    }\r\n\r\n    function buyTokens()  public payable{\r\n        require(msg.sender != address(0), \"Mauvaise address\");\r\n        // Calculate the number of tokens\r\n        uint tokenAmount = msg.value * rate;\r\n        //enough tokens\r\n        require(rewardTokenInstance.balanceOf(address(this)) >= tokenAmount, \"pas assez de token\");\r\n        rewardTokenInstance.transfer(msg.sender, tokenAmount);\r\n\r\n        //Emit an event\r\n        emit TokensPurchase(msg.sender, address(rewardTokenInstance), tokenAmount, rate);\r\n    }\r\n\r\n    function sellTokens(uint _amount) public{\r\n        require(_amount <= rewardTokenInstance.balanceOf(msg.sender),\"Pas assez de token\");\r\n        uint etherAmount = _amount / rate;\r\n        //enough Ether\r\n        require(address(this).balance >= etherAmount, \"pas assez d' ether\");\r\n        //Perform\r\n        rewardTokenInstance.transferFrom(msg.sender, address(this), _amount);\r\n        payable(msg.sender).transfer(etherAmount);\r\n\r\n        emit TokensSold(msg.sender, address(rewardTokenInstance), _amount, rate);\r\n    }\r\n}",
  "sourcePath": "C:\\wamp64\\www\\learnblockchain\\6. Finance\\DEFI\\contracts\\Swap.sol",
  "compiler": {
    "name": "solc",
    "version": "0.8.11+commit.d7f03943.Emscripten.clang"
  },
  "schemaVersion": "3.4.3",
  "updatedAt": "2022-02-03T15:03:55.595Z",
  "networkType": "ethereum",
  "devdoc": {
    "kind": "dev",
    "methods": {},
    "version": 1
  },
  "userdoc": {
    "kind": "user",
    "methods": {},
    "version": 1
  }
}