{
  "contractName": "Admin",
  "abi": [
    {
      "anonymous": false,
      "inputs": [
        {
          "indexed": false,
          "internalType": "address",
          "name": "_address",
          "type": "address"
        }
      ],
      "name": "Blacklisted",
      "type": "event"
    },
    {
      "anonymous": false,
      "inputs": [
        {
          "indexed": true,
          "internalType": "address",
          "name": "previousOwner",
          "type": "address"
        },
        {
          "indexed": true,
          "internalType": "address",
          "name": "newOwner",
          "type": "address"
        }
      ],
      "name": "OwnershipTransferred",
      "type": "event"
    },
    {
      "anonymous": false,
      "inputs": [
        {
          "indexed": false,
          "internalType": "address",
          "name": "_address",
          "type": "address"
        }
      ],
      "name": "Whitelisted",
      "type": "event"
    },
    {
      "inputs": [
        {
          "internalType": "uint256",
          "name": "",
          "type": "uint256"
        }
      ],
      "name": "addresses",
      "outputs": [
        {
          "internalType": "address",
          "name": "",
          "type": "address"
        }
      ],
      "stateMutability": "view",
      "type": "function"
    },
    {
      "inputs": [],
      "name": "owner",
      "outputs": [
        {
          "internalType": "address",
          "name": "",
          "type": "address"
        }
      ],
      "stateMutability": "view",
      "type": "function"
    },
    {
      "inputs": [],
      "name": "renounceOwnership",
      "outputs": [],
      "stateMutability": "nonpayable",
      "type": "function"
    },
    {
      "inputs": [
        {
          "internalType": "address",
          "name": "newOwner",
          "type": "address"
        }
      ],
      "name": "transferOwnership",
      "outputs": [],
      "stateMutability": "nonpayable",
      "type": "function"
    },
    {
      "inputs": [
        {
          "internalType": "address",
          "name": "_address",
          "type": "address"
        }
      ],
      "name": "isWhitelisted",
      "outputs": [
        {
          "internalType": "bool",
          "name": "",
          "type": "bool"
        }
      ],
      "stateMutability": "view",
      "type": "function"
    },
    {
      "inputs": [
        {
          "internalType": "address",
          "name": "_address",
          "type": "address"
        }
      ],
      "name": "isBlacklisted",
      "outputs": [
        {
          "internalType": "bool",
          "name": "",
          "type": "bool"
        }
      ],
      "stateMutability": "view",
      "type": "function"
    },
    {
      "inputs": [
        {
          "internalType": "address",
          "name": "_address",
          "type": "address"
        }
      ],
      "name": "whitelist",
      "outputs": [],
      "stateMutability": "nonpayable",
      "type": "function"
    },
    {
      "inputs": [
        {
          "internalType": "address",
          "name": "_address",
          "type": "address"
        }
      ],
      "name": "blacklist",
      "outputs": [],
      "stateMutability": "nonpayable",
      "type": "function"
    },
    {
      "inputs": [],
      "name": "getTheWhiteListed",
      "outputs": [
        {
          "internalType": "address[]",
          "name": "",
          "type": "address[]"
        }
      ],
      "stateMutability": "view",
      "type": "function"
    }
  ],
  "bytecode": "0x608060405234801561001057600080fd5b5061003f61002b610044640100000000026401000000009004565b61004c640100000000026401000000009004565b610110565b600033905090565b60008060009054906101000a900473ffffffffffffffffffffffffffffffffffffffff169050816000806101000a81548173ffffffffffffffffffffffffffffffffffffffff021916908373ffffffffffffffffffffffffffffffffffffffff1602179055508173ffffffffffffffffffffffffffffffffffffffff168173ffffffffffffffffffffffffffffffffffffffff167f8be0079c531659141344cd1fd0a4f28419497f9722a3daafe3b4186f6b6457e060405160405180910390a35050565b610f968061011f6000396000f3fe608060405234801561001057600080fd5b50600436106100b0576000357c010000000000000000000000000000000000000000000000000000000090048063a99aa98311610083578063a99aa98314610129578063edf26d9b14610147578063f2fde38b14610177578063f9f92be414610193578063fe575a87146101af576100b0565b80633af32abf146100b5578063715018a6146100e55780638da5cb5b146100ef5780639b19251a1461010d575b600080fd5b6100cf60048036038101906100ca9190610b5d565b6101df565b6040516100dc9190610ba5565b60405180910390f35b6100ed610235565b005b6100f76102bd565b6040516101049190610bcf565b60405180910390f35b61012760048036038101906101229190610b5d565b6102e6565b005b610131610570565b60405161013e9190610ca8565b60405180910390f35b610161600480360381019061015c9190610d00565b6105fe565b60405161016e9190610bcf565b60405180910390f35b610191600480360381019061018c9190610b5d565b61063d565b005b6101ad60048036038101906101a89190610b5d565b610735565b005b6101c960048036038101906101c49190610b5d565b61095c565b6040516101d69190610ba5565b60405180910390f35b6000600160008373ffffffffffffffffffffffffffffffffffffffff1673ffffffffffffffffffffffffffffffffffffffff16815260200190815260200160002060009054906101000a900460ff169050919050565b61023d610a2e565b73ffffffffffffffffffffffffffffffffffffffff1661025b6102bd565b73ffffffffffffffffffffffffffffffffffffffff16146102b1576040517f08c379a00000000000000000000000000000000000000000000000000000000081526004016102a890610d8a565b60405180910390fd5b6102bb6000610a36565b565b60008060009054906101000a900473ffffffffffffffffffffffffffffffffffffffff16905090565b6102ee610a2e565b73ffffffffffffffffffffffffffffffffffffffff1661030c6102bd565b73ffffffffffffffffffffffffffffffffffffffff1614610362576040517f08c379a000000000000000000000000000000000000000000000000000000000815260040161035990610d8a565b60405180910390fd5b600160008273ffffffffffffffffffffffffffffffffffffffff1673ffffffffffffffffffffffffffffffffffffffff16815260200190815260200160002060009054906101000a900460ff16156103ef576040517f08c379a00000000000000000000000000000000000000000000000000000000081526004016103e690610e1c565b60405180910390fd5b600260008273ffffffffffffffffffffffffffffffffffffffff1673ffffffffffffffffffffffffffffffffffffffff16815260200190815260200160002060009054906101000a900460ff161561047c576040517f08c379a000000000000000000000000000000000000000000000000000000000815260040161047390610eae565b60405180910390fd5b60018060008373ffffffffffffffffffffffffffffffffffffffff1673ffffffffffffffffffffffffffffffffffffffff16815260200190815260200160002060006101000a81548160ff0219169083151502179055506003819080600181540180825580915050600190039060005260206000200160009091909190916101000a81548173ffffffffffffffffffffffffffffffffffffffff021916908373ffffffffffffffffffffffffffffffffffffffff1602179055507faab7954e9d246b167ef88aeddad35209ca2489d95a8aeb59e288d9b19fae5a54816040516105659190610bcf565b60405180910390a150565b606060038054806020026020016040519081016040528092919081815260200182805480156105f457602002820191906000526020600020905b8160009054906101000a900473ffffffffffffffffffffffffffffffffffffffff1673ffffffffffffffffffffffffffffffffffffffff16815260200190600101908083116105aa575b5050505050905090565b6003818154811061060e57600080fd5b906000526020600020016000915054906101000a900473ffffffffffffffffffffffffffffffffffffffff1681565b610645610a2e565b73ffffffffffffffffffffffffffffffffffffffff166106636102bd565b73ffffffffffffffffffffffffffffffffffffffff16146106b9576040517f08c379a00000000000000000000000000000000000000000000000000000000081526004016106b090610d8a565b60405180910390fd5b600073ffffffffffffffffffffffffffffffffffffffff168173ffffffffffffffffffffffffffffffffffffffff161415610729576040517f08c379a000000000000000000000000000000000000000000000000000000000815260040161072090610f40565b60405180910390fd5b61073281610a36565b50565b61073d610a2e565b73ffffffffffffffffffffffffffffffffffffffff1661075b6102bd565b73ffffffffffffffffffffffffffffffffffffffff16146107b1576040517f08c379a00000000000000000000000000000000000000000000000000000000081526004016107a890610d8a565b60405180910390fd5b600260008273ffffffffffffffffffffffffffffffffffffffff1673ffffffffffffffffffffffffffffffffffffffff16815260200190815260200160002060009054906101000a900460ff161561083e576040517f08c379a000000000000000000000000000000000000000000000000000000000815260040161083590610eae565b60405180910390fd5b600160008273ffffffffffffffffffffffffffffffffffffffff1673ffffffffffffffffffffffffffffffffffffffff16815260200190815260200160002060009054906101000a900460ff16156108cb576040517f08c379a00000000000000000000000000000000000000000000000000000000081526004016108c290610e1c565b60405180910390fd5b60018060008373ffffffffffffffffffffffffffffffffffffffff1673ffffffffffffffffffffffffffffffffffffffff16815260200190815260200160002060006101000a81548160ff0219169083151502179055507fffa4e6181777692565cf28528fc88fd1516ea86b56da075235fa575af6a4b855816040516109519190610bcf565b60405180910390a150565b6000610966610a2e565b73ffffffffffffffffffffffffffffffffffffffff166109846102bd565b73ffffffffffffffffffffffffffffffffffffffff16146109da576040517f08c379a00000000000000000000000000000000000000000000000000000000081526004016109d190610d8a565b60405180910390fd5b600260008373ffffffffffffffffffffffffffffffffffffffff1673ffffffffffffffffffffffffffffffffffffffff16815260200190815260200160002060009054906101000a900460ff169050919050565b600033905090565b60008060009054906101000a900473ffffffffffffffffffffffffffffffffffffffff169050816000806101000a81548173ffffffffffffffffffffffffffffffffffffffff021916908373ffffffffffffffffffffffffffffffffffffffff1602179055508173ffffffffffffffffffffffffffffffffffffffff168173ffffffffffffffffffffffffffffffffffffffff167f8be0079c531659141344cd1fd0a4f28419497f9722a3daafe3b4186f6b6457e060405160405180910390a35050565b600080fd5b600073ffffffffffffffffffffffffffffffffffffffff82169050919050565b6000610b2a82610aff565b9050919050565b610b3a81610b1f565b8114610b4557600080fd5b50565b600081359050610b5781610b31565b92915050565b600060208284031215610b7357610b72610afa565b5b6000610b8184828501610b48565b91505092915050565b60008115159050919050565b610b9f81610b8a565b82525050565b6000602082019050610bba6000830184610b96565b92915050565b610bc981610b1f565b82525050565b6000602082019050610be46000830184610bc0565b92915050565b600081519050919050565b600082825260208201905092915050565b6000819050602082019050919050565b610c1f81610b1f565b82525050565b6000610c318383610c16565b60208301905092915050565b6000602082019050919050565b6000610c5582610bea565b610c5f8185610bf5565b9350610c6a83610c06565b8060005b83811015610c9b578151610c828882610c25565b9750610c8d83610c3d565b925050600181019050610c6e565b5085935050505092915050565b60006020820190508181036000830152610cc28184610c4a565b905092915050565b6000819050919050565b610cdd81610cca565b8114610ce857600080fd5b50565b600081359050610cfa81610cd4565b92915050565b600060208284031215610d1657610d15610afa565b5b6000610d2484828501610ceb565b91505092915050565b600082825260208201905092915050565b7f4f776e61626c653a2063616c6c6572206973206e6f7420746865206f776e6572600082015250565b6000610d74602083610d2d565b9150610d7f82610d3e565b602082019050919050565b60006020820190508181036000830152610da381610d67565b9050919050565b7f54686973206164647265737320697320616c72656164792077686974656c697360008201527f7465642021000000000000000000000000000000000000000000000000000000602082015250565b6000610e06602583610d2d565b9150610e1182610daa565b604082019050919050565b60006020820190508181036000830152610e3581610df9565b9050919050565b7f54686973206164647265737320697320616c726561647920626c61636b6c697360008201527f7465642021000000000000000000000000000000000000000000000000000000602082015250565b6000610e98602583610d2d565b9150610ea382610e3c565b604082019050919050565b60006020820190508181036000830152610ec781610e8b565b9050919050565b7f4f776e61626c653a206e6577206f776e657220697320746865207a65726f206160008201527f6464726573730000000000000000000000000000000000000000000000000000602082015250565b6000610f2a602683610d2d565b9150610f3582610ece565b604082019050919050565b60006020820190508181036000830152610f5981610f1d565b905091905056fea26469706673582212201044b7e8a57f7ad2ad99669a55c43bf90afeb6051b6104a697f7525c7ab0710064736f6c634300080b0033",
  "immutableReferences": {},
  "source": "// SPDX-License-Identifier: MIT\r\npragma solidity 0.8.11;\r\nimport \"@openzeppelin/contracts/access/Ownable.sol\";\r\n\r\ncontract Admin is Ownable{\r\n    mapping( address => bool) _whitelist;\r\n    mapping( address => bool) _blacklist;\r\n\r\n    address[] public addresses;  \r\n    event Whitelisted(address _address);\r\n    event Blacklisted(address _address);\r\n\r\n    function isWhitelisted(address _address) public view returns(bool){\r\n        return _whitelist[_address];\r\n    } \r\n\r\n    function isBlacklisted(address _address) public view onlyOwner returns(bool){\r\n        return _blacklist[_address];\r\n    } \r\n\r\n    function whitelist(address _address) public onlyOwner {\r\n        require(!_whitelist[_address], \"This address is already whitelisted !\");\r\n        require(!_blacklist[_address], \"This address is already blacklisted !\");\r\n        _whitelist[_address] = true;\r\n        addresses.push(_address);\r\n        emit Whitelisted(_address);\r\n    }\r\n\r\n    function blacklist(address _address) public onlyOwner {\r\n        require(!_blacklist[_address], \"This address is already blacklisted !\");\r\n        require(!_whitelist[_address], \"This address is already whitelisted !\");\r\n        _whitelist[_address] = true;\r\n        emit Blacklisted(_address);\r\n    }\r\n\r\n    function getTheWhiteListed() public view returns(address[] memory){\r\n        return addresses;  \r\n    }    \r\n}",
  "sourcePath": "C:\\wamp64\\www\\learnblockchain\\5. DApp\\DEFI\\contracts\\Admin.sol",
  "compiler": {
    "name": "solc",
    "version": "0.8.11+commit.d7f03943.Emscripten.clang"
  },
  "schemaVersion": "3.4.3",
  "updatedAt": "2022-01-06T13:20:40.162Z",
  "devdoc": {
    "kind": "dev",
    "methods": {
      "owner()": {
        "details": "Returns the address of the current owner."
      },
      "renounceOwnership()": {
        "details": "Leaves the contract without owner. It will not be possible to call `onlyOwner` functions anymore. Can only be called by the current owner. NOTE: Renouncing ownership will leave the contract without an owner, thereby removing any functionality that is only available to the owner."
      },
      "transferOwnership(address)": {
        "details": "Transfers ownership of the contract to a new account (`newOwner`). Can only be called by the current owner."
      }
    },
    "version": 1
  },
  "userdoc": {
    "kind": "user",
    "methods": {},
    "version": 1
  }
}