{
  "contractName": "Voting",
  "abi": [
    {
      "anonymous": false,
      "inputs": [
        {
          "indexed": false,
          "internalType": "address",
          "name": "_address",
          "type": "address"
        }
      ],
      "name": "Blacklisted",
      "type": "event"
    },
    {
      "anonymous": false,
      "inputs": [
        {
          "indexed": true,
          "internalType": "address",
          "name": "previousOwner",
          "type": "address"
        },
        {
          "indexed": true,
          "internalType": "address",
          "name": "newOwner",
          "type": "address"
        }
      ],
      "name": "OwnershipTransferred",
      "type": "event"
    },
    {
      "anonymous": false,
      "inputs": [
        {
          "indexed": false,
          "internalType": "uint256",
          "name": "proposalId",
          "type": "uint256"
        }
      ],
      "name": "ProposalRegistered",
      "type": "event"
    },
    {
      "anonymous": false,
      "inputs": [
        {
          "indexed": false,
          "internalType": "address",
          "name": "voter",
          "type": "address"
        },
        {
          "indexed": false,
          "internalType": "uint256",
          "name": "proposalId",
          "type": "uint256"
        }
      ],
      "name": "Voted",
      "type": "event"
    },
    {
      "anonymous": false,
      "inputs": [
        {
          "indexed": false,
          "internalType": "address",
          "name": "voterAddress",
          "type": "address"
        }
      ],
      "name": "VoterRegistered",
      "type": "event"
    },
    {
      "anonymous": false,
      "inputs": [
        {
          "indexed": false,
          "internalType": "address",
          "name": "_address",
          "type": "address"
        }
      ],
      "name": "Whitelisted",
      "type": "event"
    },
    {
      "anonymous": false,
      "inputs": [
        {
          "indexed": false,
          "internalType": "enum Voting.WorkflowStatus",
          "name": "previousStatus",
          "type": "uint8"
        },
        {
          "indexed": false,
          "internalType": "enum Voting.WorkflowStatus",
          "name": "newStatus",
          "type": "uint8"
        }
      ],
      "name": "WorkflowStatusChange",
      "type": "event"
    },
    {
      "inputs": [],
      "name": "actualStatus",
      "outputs": [
        {
          "internalType": "enum Voting.WorkflowStatus",
          "name": "",
          "type": "uint8"
        }
      ],
      "stateMutability": "view",
      "type": "function",
      "constant": true
    },
    {
      "inputs": [
        {
          "internalType": "uint256",
          "name": "",
          "type": "uint256"
        }
      ],
      "name": "addresses",
      "outputs": [
        {
          "internalType": "address",
          "name": "",
          "type": "address"
        }
      ],
      "stateMutability": "view",
      "type": "function",
      "constant": true
    },
    {
      "inputs": [
        {
          "internalType": "address",
          "name": "_address",
          "type": "address"
        }
      ],
      "name": "blacklist",
      "outputs": [],
      "stateMutability": "nonpayable",
      "type": "function"
    },
    {
      "inputs": [],
      "name": "getTheWhiteListed",
      "outputs": [
        {
          "internalType": "address[]",
          "name": "",
          "type": "address[]"
        }
      ],
      "stateMutability": "view",
      "type": "function",
      "constant": true
    },
    {
      "inputs": [
        {
          "internalType": "address",
          "name": "_address",
          "type": "address"
        }
      ],
      "name": "isBlacklisted",
      "outputs": [
        {
          "internalType": "bool",
          "name": "",
          "type": "bool"
        }
      ],
      "stateMutability": "view",
      "type": "function",
      "constant": true
    },
    {
      "inputs": [
        {
          "internalType": "address",
          "name": "_address",
          "type": "address"
        }
      ],
      "name": "isWhitelisted",
      "outputs": [
        {
          "internalType": "bool",
          "name": "",
          "type": "bool"
        }
      ],
      "stateMutability": "view",
      "type": "function",
      "constant": true
    },
    {
      "inputs": [],
      "name": "numberProposals",
      "outputs": [
        {
          "internalType": "uint256",
          "name": "",
          "type": "uint256"
        }
      ],
      "stateMutability": "view",
      "type": "function",
      "constant": true
    },
    {
      "inputs": [],
      "name": "owner",
      "outputs": [
        {
          "internalType": "address",
          "name": "",
          "type": "address"
        }
      ],
      "stateMutability": "view",
      "type": "function",
      "constant": true
    },
    {
      "inputs": [
        {
          "internalType": "uint256",
          "name": "",
          "type": "uint256"
        }
      ],
      "name": "proposals",
      "outputs": [
        {
          "internalType": "string",
          "name": "description",
          "type": "string"
        },
        {
          "internalType": "uint256",
          "name": "voteCount",
          "type": "uint256"
        }
      ],
      "stateMutability": "view",
      "type": "function",
      "constant": true
    },
    {
      "inputs": [],
      "name": "renounceOwnership",
      "outputs": [],
      "stateMutability": "nonpayable",
      "type": "function"
    },
    {
      "inputs": [
        {
          "internalType": "address",
          "name": "newOwner",
          "type": "address"
        }
      ],
      "name": "transferOwnership",
      "outputs": [],
      "stateMutability": "nonpayable",
      "type": "function"
    },
    {
      "inputs": [
        {
          "internalType": "address",
          "name": "",
          "type": "address"
        }
      ],
      "name": "voters",
      "outputs": [
        {
          "internalType": "bool",
          "name": "isRegistered",
          "type": "bool"
        },
        {
          "internalType": "bool",
          "name": "hasVoted",
          "type": "bool"
        },
        {
          "internalType": "uint256",
          "name": "votedProposalId",
          "type": "uint256"
        }
      ],
      "stateMutability": "view",
      "type": "function",
      "constant": true
    },
    {
      "inputs": [
        {
          "internalType": "address",
          "name": "_address",
          "type": "address"
        }
      ],
      "name": "whitelist",
      "outputs": [],
      "stateMutability": "nonpayable",
      "type": "function"
    },
    {
      "inputs": [],
      "name": "winningProposalId",
      "outputs": [
        {
          "internalType": "uint256",
          "name": "",
          "type": "uint256"
        }
      ],
      "stateMutability": "view",
      "type": "function",
      "constant": true
    },
    {
      "inputs": [
        {
          "internalType": "enum Voting.WorkflowStatus",
          "name": "newStatus",
          "type": "uint8"
        }
      ],
      "name": "changeWorkflow",
      "outputs": [],
      "stateMutability": "nonpayable",
      "type": "function"
    },
    {
      "inputs": [
        {
          "internalType": "address",
          "name": "_address",
          "type": "address"
        }
      ],
      "name": "voterRegistered",
      "outputs": [],
      "stateMutability": "nonpayable",
      "type": "function"
    },
    {
      "inputs": [
        {
          "internalType": "string",
          "name": "description",
          "type": "string"
        }
      ],
      "name": "registeredProposal",
      "outputs": [],
      "stateMutability": "nonpayable",
      "type": "function"
    },
    {
      "inputs": [
        {
          "internalType": "uint256",
          "name": "proposalId",
          "type": "uint256"
        }
      ],
      "name": "vote",
      "outputs": [],
      "stateMutability": "nonpayable",
      "type": "function"
    },
    {
      "inputs": [],
      "name": "getProposals",
      "outputs": [
        {
          "components": [
            {
              "internalType": "string",
              "name": "description",
              "type": "string"
            },
            {
              "internalType": "uint256",
              "name": "voteCount",
              "type": "uint256"
            }
          ],
          "internalType": "struct Voting.Proposal[]",
          "name": "",
          "type": "tuple[]"
        }
      ],
      "stateMutability": "view",
      "type": "function",
      "constant": true
    },
    {
      "inputs": [],
      "name": "getWinningProposals",
      "outputs": [
        {
          "components": [
            {
              "internalType": "string",
              "name": "description",
              "type": "string"
            },
            {
              "internalType": "uint256",
              "name": "voteCount",
              "type": "uint256"
            }
          ],
          "internalType": "struct Voting.Proposal",
          "name": "",
          "type": "tuple"
        }
      ],
      "stateMutability": "view",
      "type": "function",
      "constant": true
    }
  ],
  "bytecode": "0x608060405260006005556000600660006101000a81548160ff0219169083600581111562000032576200003162000149565b5b02179055503480156200004457600080fd5b5062000077620000626200007d640100000000026401000000009004565b62000085640100000000026401000000009004565b62000178565b600033905090565b60008060009054906101000a900473ffffffffffffffffffffffffffffffffffffffff169050816000806101000a81548173ffffffffffffffffffffffffffffffffffffffff021916908373ffffffffffffffffffffffffffffffffffffffff1602179055508173ffffffffffffffffffffffffffffffffffffffff168173ffffffffffffffffffffffffffffffffffffffff167f8be0079c531659141344cd1fd0a4f28419497f9722a3daafe3b4186f6b6457e060405160405180910390a35050565b7f4e487b7100000000000000000000000000000000000000000000000000000000600052602160045260246000fd5b6128fd80620001886000396000f3fe608060405234801561001057600080fd5b5060043610610149576000357c010000000000000000000000000000000000000000000000000000000090048063a3ec138d116100ca578063edf26d9b1161008e578063edf26d9b1461032b578063ef788cd51461035b578063f2fde38b14610379578063f9f92be414610395578063fe575a87146103b157610149565b8063a3ec138d14610285578063a99aa983146102b7578063c64963c5146102d5578063c6cf87d0146102f3578063e0fc383d1461030f57610149565b806362564c481161011157806362564c48146102055780636cc416a914610223578063715018a6146102415780638da5cb5b1461024b5780639b19251a1461026957610149565b80630121b93f1461014e578063013cf08b1461016a5780633447d0d11461019b578063387e3d20146101b95780633af32abf146101d5575b600080fd5b61016860048036038101906101639190611944565b6103e1565b005b610184600480360381019061017f9190611944565b61075d565b604051610192929190611a19565b60405180910390f35b6101a3610819565b6040516101b09190611a49565b60405180910390f35b6101d360048036038101906101ce9190611ac2565b61081f565b005b6101ef60048036038101906101ea9190611ac2565b610954565b6040516101fc9190611b0a565b60405180910390f35b61020d6109aa565b60405161021a9190611c7d565b60405180910390f35b61022b610aa5565b6040516102389190611d16565b60405180910390f35b610249610ab8565b005b610253610b40565b6040516102609190611d40565b60405180910390f35b610283600480360381019061027e9190611ac2565b610b69565b005b61029f600480360381019061029a9190611ac2565b610df3565b6040516102ae93929190611d5b565b60405180910390f35b6102bf610e37565b6040516102cc9190611e50565b60405180910390f35b6102dd610ec5565b6040516102ea9190611a49565b60405180910390f35b61030d60048036038101906103089190611e97565b610ecb565b005b61032960048036038101906103249190611ff9565b6110a7565b005b61034560048036038101906103409190611944565b611269565b6040516103529190611d40565b60405180910390f35b6103636112a8565b604051610370919061207f565b60405180910390f35b610393600480360381019061038e9190611ac2565b611380565b005b6103af60048036038101906103aa9190611ac2565b611478565b005b6103cb60048036038101906103c69190611ac2565b61169f565b6040516103d89190611b0a565b60405180910390f35b600360058111156103f5576103f4611c9f565b5b600660009054906101000a900460ff16600581111561041757610416611c9f565b5b14610457576040517f08c379a000000000000000000000000000000000000000000000000000000000815260040161044e906120ed565b60405180910390fd5b600554811061049b576040517f08c379a000000000000000000000000000000000000000000000000000000000815260040161049290612159565b60405180910390fd5b600760003373ffffffffffffffffffffffffffffffffffffffff1673ffffffffffffffffffffffffffffffffffffffff16815260200190815260200160002060000160019054906101000a900460ff161561052b576040517f08c379a0000000000000000000000000000000000000000000000000000000008152600401610522906121c5565b60405180910390fd5b61053433610954565b610573576040517f08c379a000000000000000000000000000000000000000000000000000000000815260040161056a90612231565b60405180910390fd5b61057c33610954565b600760003373ffffffffffffffffffffffffffffffffffffffff1673ffffffffffffffffffffffffffffffffffffffff16815260200190815260200160002060000160006101000a81548160ff021916908315150217905550600881815481106105e9576105e8612251565b5b9060005260206000209060020201600101600081548092919061060b906122af565b91905055506001600760003373ffffffffffffffffffffffffffffffffffffffff1673ffffffffffffffffffffffffffffffffffffffff16815260200190815260200160002060000160016101000a81548160ff02191690831515021790555080600760003373ffffffffffffffffffffffffffffffffffffffff1673ffffffffffffffffffffffffffffffffffffffff168152602001908152602001600020600101819055507f4d99b957a2bc29a30ebd96a7be8e68fe50a3c701db28a91436490b7d53870ca433826040516106e39291906122f8565b60405180910390a1600060045414156106fe57806004819055505b60086004548154811061071457610713612251565b5b9060005260206000209060020201600101546008828154811061073a57610739612251565b5b906000526020600020906002020160010154111561075a57806004819055505b50565b6008818154811061076d57600080fd5b906000526020600020906002020160009150905080600001805461079090612350565b80601f01602080910402602001604051908101604052809291908181526020018280546107bc90612350565b80156108095780601f106107de57610100808354040283529160200191610809565b820191906000526020600020905b8154815290600101906020018083116107ec57829003601f168201915b5050505050908060010154905082565b60055481565b610827611771565b73ffffffffffffffffffffffffffffffffffffffff16610845610b40565b73ffffffffffffffffffffffffffffffffffffffff161461089b576040517f08c379a0000000000000000000000000000000000000000000000000000000008152600401610892906123ce565b60405180910390fd5b600060058111156108af576108ae611c9f565b5b600660009054906101000a900460ff1660058111156108d1576108d0611c9f565b5b14610911576040517f08c379a000000000000000000000000000000000000000000000000000000000815260040161090890612460565b60405180910390fd5b61091a81610b69565b7fb6be2187d059cc2a55fe29e0e503b566e1e0f8c8780096e185429350acffd3dd816040516109499190611d40565b60405180910390a150565b6000600160008373ffffffffffffffffffffffffffffffffffffffff1673ffffffffffffffffffffffffffffffffffffffff16815260200190815260200160002060009054906101000a900460ff169050919050565b60606008805480602002602001604051908101604052809291908181526020016000905b82821015610a9c5783829060005260206000209060020201604051806040016040529081600082018054610a0190612350565b80601f0160208091040260200160405190810160405280929190818152602001828054610a2d90612350565b8015610a7a5780601f10610a4f57610100808354040283529160200191610a7a565b820191906000526020600020905b815481529060010190602001808311610a5d57829003601f168201915b50505050508152602001600182015481525050815260200190600101906109ce565b50505050905090565b600660009054906101000a900460ff1681565b610ac0611771565b73ffffffffffffffffffffffffffffffffffffffff16610ade610b40565b73ffffffffffffffffffffffffffffffffffffffff1614610b34576040517f08c379a0000000000000000000000000000000000000000000000000000000008152600401610b2b906123ce565b60405180910390fd5b610b3e6000611779565b565b60008060009054906101000a900473ffffffffffffffffffffffffffffffffffffffff16905090565b610b71611771565b73ffffffffffffffffffffffffffffffffffffffff16610b8f610b40565b73ffffffffffffffffffffffffffffffffffffffff1614610be5576040517f08c379a0000000000000000000000000000000000000000000000000000000008152600401610bdc906123ce565b60405180910390fd5b600160008273ffffffffffffffffffffffffffffffffffffffff1673ffffffffffffffffffffffffffffffffffffffff16815260200190815260200160002060009054906101000a900460ff1615610c72576040517f08c379a0000000000000000000000000000000000000000000000000000000008152600401610c69906124f2565b60405180910390fd5b600260008273ffffffffffffffffffffffffffffffffffffffff1673ffffffffffffffffffffffffffffffffffffffff16815260200190815260200160002060009054906101000a900460ff1615610cff576040517f08c379a0000000000000000000000000000000000000000000000000000000008152600401610cf690612584565b60405180910390fd5b60018060008373ffffffffffffffffffffffffffffffffffffffff1673ffffffffffffffffffffffffffffffffffffffff16815260200190815260200160002060006101000a81548160ff0219169083151502179055506003819080600181540180825580915050600190039060005260206000200160009091909190916101000a81548173ffffffffffffffffffffffffffffffffffffffff021916908373ffffffffffffffffffffffffffffffffffffffff1602179055507faab7954e9d246b167ef88aeddad35209ca2489d95a8aeb59e288d9b19fae5a5481604051610de89190611d40565b60405180910390a150565b60076020528060005260406000206000915090508060000160009054906101000a900460ff16908060000160019054906101000a900460ff16908060010154905083565b60606003805480602002602001604051908101604052809291908181526020018280548015610ebb57602002820191906000526020600020905b8160009054906101000a900473ffffffffffffffffffffffffffffffffffffffff1673ffffffffffffffffffffffffffffffffffffffff1681526020019060010190808311610e71575b5050505050905090565b60045481565b610ed3611771565b73ffffffffffffffffffffffffffffffffffffffff16610ef1610b40565b73ffffffffffffffffffffffffffffffffffffffff1614610f47576040517f08c379a0000000000000000000000000000000000000000000000000000000008152600401610f3e906123ce565b60405180910390fd5b600660009054906101000a900460ff166005811115610f6957610f68611c9f565b5b816005811115610f7c57610f7b611c9f565b5b1415610fbd576040517f08c379a0000000000000000000000000000000000000000000000000000000008152600401610fb4906125f0565b60405180910390fd5b600660009054906101000a900460ff166005811115610fdf57610fde611c9f565b5b816005811115610ff257610ff1611c9f565b5b11611032576040517f08c379a000000000000000000000000000000000000000000000000000000000815260040161102990612682565b60405180910390fd5b7f0a97a4ee45751e2abf3e4fc8946939630b11b371ea8ae39ccdc3056e98f5cc3f600660009054906101000a900460ff16826040516110729291906126a2565b60405180910390a180600660006101000a81548160ff0219169083600581111561109f5761109e611c9f565b5b021790555050565b600160058111156110bb576110ba611c9f565b5b600660009054906101000a900460ff1660058111156110dd576110dc611c9f565b5b1461111d576040517f08c379a00000000000000000000000000000000000000000000000000000000081526004016111149061273d565b60405180910390fd5b61112633610954565b611165576040517f08c379a000000000000000000000000000000000000000000000000000000000815260040161115c906127a9565b60405180910390fd5b6103e8600554106111ab576040517f08c379a00000000000000000000000000000000000000000000000000000000081526004016111a290612815565b60405180910390fd5b6008604051806040016040528083815260200160008152509080600181540180825580915050600190039060005260206000209060020201600090919091909150600082015181600001908051906020019061120892919061183d565b506020820151816001015550507f92e393e9b54e2f801d3ea4beb0c5e71a21cc34a5d34b77d0fb8a3aa1650dc18f6005546040516112469190611a49565b60405180910390a160056000815480929190611261906122af565b919050555050565b6003818154811061127957600080fd5b906000526020600020016000915054906101000a900473ffffffffffffffffffffffffffffffffffffffff1681565b6112b06118c3565b6008600454815481106112c6576112c5612251565b5b90600052602060002090600202016040518060400160405290816000820180546112ef90612350565b80601f016020809104026020016040519081016040528092919081815260200182805461131b90612350565b80156113685780601f1061133d57610100808354040283529160200191611368565b820191906000526020600020905b81548152906001019060200180831161134b57829003601f168201915b50505050508152602001600182015481525050905090565b611388611771565b73ffffffffffffffffffffffffffffffffffffffff166113a6610b40565b73ffffffffffffffffffffffffffffffffffffffff16146113fc576040517f08c379a00000000000000000000000000000000000000000000000000000000081526004016113f3906123ce565b60405180910390fd5b600073ffffffffffffffffffffffffffffffffffffffff168173ffffffffffffffffffffffffffffffffffffffff16141561146c576040517f08c379a0000000000000000000000000000000000000000000000000000000008152600401611463906128a7565b60405180910390fd5b61147581611779565b50565b611480611771565b73ffffffffffffffffffffffffffffffffffffffff1661149e610b40565b73ffffffffffffffffffffffffffffffffffffffff16146114f4576040517f08c379a00000000000000000000000000000000000000000000000000000000081526004016114eb906123ce565b60405180910390fd5b600260008273ffffffffffffffffffffffffffffffffffffffff1673ffffffffffffffffffffffffffffffffffffffff16815260200190815260200160002060009054906101000a900460ff1615611581576040517f08c379a000000000000000000000000000000000000000000000000000000000815260040161157890612584565b60405180910390fd5b600160008273ffffffffffffffffffffffffffffffffffffffff1673ffffffffffffffffffffffffffffffffffffffff16815260200190815260200160002060009054906101000a900460ff161561160e576040517f08c379a0000000000000000000000000000000000000000000000000000000008152600401611605906124f2565b60405180910390fd5b60018060008373ffffffffffffffffffffffffffffffffffffffff1673ffffffffffffffffffffffffffffffffffffffff16815260200190815260200160002060006101000a81548160ff0219169083151502179055507fffa4e6181777692565cf28528fc88fd1516ea86b56da075235fa575af6a4b855816040516116949190611d40565b60405180910390a150565b60006116a9611771565b73ffffffffffffffffffffffffffffffffffffffff166116c7610b40565b73ffffffffffffffffffffffffffffffffffffffff161461171d576040517f08c379a0000000000000000000000000000000000000000000000000000000008152600401611714906123ce565b60405180910390fd5b600260008373ffffffffffffffffffffffffffffffffffffffff1673ffffffffffffffffffffffffffffffffffffffff16815260200190815260200160002060009054906101000a900460ff169050919050565b600033905090565b60008060009054906101000a900473ffffffffffffffffffffffffffffffffffffffff169050816000806101000a81548173ffffffffffffffffffffffffffffffffffffffff021916908373ffffffffffffffffffffffffffffffffffffffff1602179055508173ffffffffffffffffffffffffffffffffffffffff168173ffffffffffffffffffffffffffffffffffffffff167f8be0079c531659141344cd1fd0a4f28419497f9722a3daafe3b4186f6b6457e060405160405180910390a35050565b82805461184990612350565b90600052602060002090601f01602090048101928261186b57600085556118b2565b82601f1061188457805160ff19168380011785556118b2565b828001600101855582156118b2579182015b828111156118b1578251825591602001919060010190611896565b5b5090506118bf91906118dd565b5090565b604051806040016040528060608152602001600081525090565b5b808211156118f65760008160009055506001016118de565b5090565b6000604051905090565b600080fd5b600080fd5b6000819050919050565b6119218161190e565b811461192c57600080fd5b50565b60008135905061193e81611918565b92915050565b60006020828403121561195a57611959611904565b5b60006119688482850161192f565b91505092915050565b600081519050919050565b600082825260208201905092915050565b60005b838110156119ab578082015181840152602081019050611990565b838111156119ba576000848401525b50505050565b6000601f19601f8301169050919050565b60006119dc82611971565b6119e6818561197c565b93506119f681856020860161198d565b6119ff816119c0565b840191505092915050565b611a138161190e565b82525050565b60006040820190508181036000830152611a3381856119d1565b9050611a426020830184611a0a565b9392505050565b6000602082019050611a5e6000830184611a0a565b92915050565b600073ffffffffffffffffffffffffffffffffffffffff82169050919050565b6000611a8f82611a64565b9050919050565b611a9f81611a84565b8114611aaa57600080fd5b50565b600081359050611abc81611a96565b92915050565b600060208284031215611ad857611ad7611904565b5b6000611ae684828501611aad565b91505092915050565b60008115159050919050565b611b0481611aef565b82525050565b6000602082019050611b1f6000830184611afb565b92915050565b600081519050919050565b600082825260208201905092915050565b6000819050602082019050919050565b600082825260208201905092915050565b6000611b6d82611971565b611b778185611b51565b9350611b8781856020860161198d565b611b90816119c0565b840191505092915050565b611ba48161190e565b82525050565b60006040830160008301518482036000860152611bc78282611b62565b9150506020830151611bdc6020860182611b9b565b508091505092915050565b6000611bf38383611baa565b905092915050565b6000602082019050919050565b6000611c1382611b25565b611c1d8185611b30565b935083602082028501611c2f85611b41565b8060005b85811015611c6b5784840389528151611c4c8582611be7565b9450611c5783611bfb565b925060208a01995050600181019050611c33565b50829750879550505050505092915050565b60006020820190508181036000830152611c978184611c08565b905092915050565b7f4e487b7100000000000000000000000000000000000000000000000000000000600052602160045260246000fd5b60068110611cdf57611cde611c9f565b5b50565b6000819050611cf082611cce565b919050565b6000611d0082611ce2565b9050919050565b611d1081611cf5565b82525050565b6000602082019050611d2b6000830184611d07565b92915050565b611d3a81611a84565b82525050565b6000602082019050611d556000830184611d31565b92915050565b6000606082019050611d706000830186611afb565b611d7d6020830185611afb565b611d8a6040830184611a0a565b949350505050565b600081519050919050565b600082825260208201905092915050565b6000819050602082019050919050565b611dc781611a84565b82525050565b6000611dd98383611dbe565b60208301905092915050565b6000602082019050919050565b6000611dfd82611d92565b611e078185611d9d565b9350611e1283611dae565b8060005b83811015611e43578151611e2a8882611dcd565b9750611e3583611de5565b925050600181019050611e16565b5085935050505092915050565b60006020820190508181036000830152611e6a8184611df2565b905092915050565b60068110611e7f57600080fd5b50565b600081359050611e9181611e72565b92915050565b600060208284031215611ead57611eac611904565b5b6000611ebb84828501611e82565b91505092915050565b600080fd5b600080fd5b7f4e487b7100000000000000000000000000000000000000000000000000000000600052604160045260246000fd5b611f06826119c0565b810181811067ffffffffffffffff82111715611f2557611f24611ece565b5b80604052505050565b6000611f386118fa565b9050611f448282611efd565b919050565b600067ffffffffffffffff821115611f6457611f63611ece565b5b611f6d826119c0565b9050602081019050919050565b82818337600083830152505050565b6000611f9c611f9784611f49565b611f2e565b905082815260208101848484011115611fb857611fb7611ec9565b5b611fc3848285611f7a565b509392505050565b600082601f830112611fe057611fdf611ec4565b5b8135611ff0848260208601611f89565b91505092915050565b60006020828403121561200f5761200e611904565b5b600082013567ffffffffffffffff81111561202d5761202c611909565b5b61203984828501611fcb565b91505092915050565b6000604083016000830151848203600086015261205f8282611b62565b91505060208301516120746020860182611b9b565b508091505092915050565b600060208201905081810360008301526120998184612042565b905092915050565b7f4c612073657373696f6e20646520766f746520657374206665726d6520212000600082015250565b60006120d7601f8361197c565b91506120e2826120a1565b602082019050919050565b60006020820190508181036000830152612106816120ca565b9050919050565b7f4c612070726f706f736974696f6e206e27657869737465207061730000000000600082015250565b6000612143601b8361197c565b915061214e8261210d565b602082019050919050565b6000602082019050818103600083015261217281612136565b9050919050565b7f566f7573206176657a2064656a6120766f746500000000000000000000000000600082015250565b60006121af60138361197c565b91506121ba82612179565b602082019050919050565b600060208201905081810360008301526121de816121a2565b9050919050565b7f566f7573206e20657465732070617320656e7265676973747265000000000000600082015250565b600061221b601a8361197c565b9150612226826121e5565b602082019050919050565b6000602082019050818103600083015261224a8161220e565b9050919050565b7f4e487b7100000000000000000000000000000000000000000000000000000000600052603260045260246000fd5b7f4e487b7100000000000000000000000000000000000000000000000000000000600052601160045260246000fd5b60006122ba8261190e565b91507fffffffffffffffffffffffffffffffffffffffffffffffffffffffffffffffff8214156122ed576122ec612280565b5b600182019050919050565b600060408201905061230d6000830185611d31565b61231a6020830184611a0a565b9392505050565b7f4e487b7100000000000000000000000000000000000000000000000000000000600052602260045260246000fd5b6000600282049050600182168061236857607f821691505b6020821081141561237c5761237b612321565b5b50919050565b7f4f776e61626c653a2063616c6c6572206973206e6f7420746865206f776e6572600082015250565b60006123b860208361197c565b91506123c382612382565b602082019050919050565b600060208201905081810360008301526123e7816123ab565b9050919050565b7f4c6120706572696f6465206420656e72656769737472656d656e742061206c6160008201527f2077686974656c69737420657374206665726d65202120000000000000000000602082015250565b600061244a60378361197c565b9150612455826123ee565b604082019050919050565b600060208201905081810360008301526124798161243d565b9050919050565b7f54686973206164647265737320697320616c72656164792077686974656c697360008201527f7465642021000000000000000000000000000000000000000000000000000000602082015250565b60006124dc60258361197c565b91506124e782612480565b604082019050919050565b6000602082019050818103600083015261250b816124cf565b9050919050565b7f54686973206164647265737320697320616c726561647920626c61636b6c697360008201527f7465642021000000000000000000000000000000000000000000000000000000602082015250565b600061256e60258361197c565b915061257982612512565b604082019050919050565b6000602082019050818103600083015261259d81612561565b9050919050565b7f436520737461747573206573742064656a612063656c75692061637475656c00600082015250565b60006125da601f8361197c565b91506125e5826125a4565b602082019050919050565b60006020820190508181036000830152612609816125cd565b9050919050565b7f4f6e206e6520706575742070617320726576656e697220656e2061727269657260008201527f6500000000000000000000000000000000000000000000000000000000000000602082015250565b600061266c60218361197c565b915061267782612610565b604082019050919050565b6000602082019050818103600083015261269b8161265f565b9050919050565b60006040820190506126b76000830185611d07565b6126c46020830184611d07565b9392505050565b7f4c6120706572696f6465206420656e72656769737472656d656e74206465732060008201527f70726f706f736974696f6e7320657374206665726d6520212000000000000000602082015250565b600061272760398361197c565b9150612732826126cb565b604082019050919050565b600060208201905081810360008301526127568161271a565b9050919050565b7f6661757800000000000000000000000000000000000000000000000000000000600082015250565b600061279360048361197c565b915061279e8261275d565b602082019050919050565b600060208201905081810360008301526127c281612786565b9050919050565b7f496c207920612074726f702064652070726f706f736974696f6e730000000000600082015250565b60006127ff601b8361197c565b915061280a826127c9565b602082019050919050565b6000602082019050818103600083015261282e816127f2565b9050919050565b7f4f776e61626c653a206e6577206f776e657220697320746865207a65726f206160008201527f6464726573730000000000000000000000000000000000000000000000000000602082015250565b600061289160268361197c565b915061289c82612835565b604082019050919050565b600060208201905081810360008301526128c081612884565b905091905056fea26469706673582212205b6344e33f548d8bfbffd277b4658b67582b2388310f31d8112ea61599155b4864736f6c634300080b0033",
  "immutableReferences": {},
  "source": "// SPDX-License-Identifier: MIT\r\npragma solidity 0.8.11;\r\nimport \"../contracts/Admin.sol\";\r\n\r\ncontract Voting is Admin {\r\n    struct Voter {\r\n        bool isRegistered;\r\n        bool hasVoted;\r\n        uint256 votedProposalId;\r\n    }\r\n\r\n    struct Proposal {\r\n        string description;\r\n        uint256 voteCount;\r\n    }\r\n\r\n    enum WorkflowStatus {\r\n        RegisteringVoters,\r\n        ProposalsRegistrationStarted,\r\n        ProposalsRegistrationEnded,\r\n        VotingSessionStarted,\r\n        VotingSessionEnded,\r\n        VotesTallied\r\n    }\r\n    \r\n    uint256 public winningProposalId;\r\n    uint256 public numberProposals = 0;\r\n    WorkflowStatus public actualStatus = WorkflowStatus.RegisteringVoters;\r\n    //mapping(uint8 => Proposal) public proposals;\r\n    mapping(address => Voter) public voters;\r\n    Proposal[] public proposals;\r\n    event VoterRegistered(address voterAddress);\r\n    event WorkflowStatusChange(\r\n        WorkflowStatus previousStatus,\r\n        WorkflowStatus newStatus\r\n    );\r\n    event ProposalRegistered(uint256 proposalId);\r\n    event Voted(address voter, uint256 proposalId);\r\n\r\n\r\n    //Permet de changer facilement le workFlow\r\n    function changeWorkflow(WorkflowStatus newStatus) public  onlyOwner{\r\n        require(\r\n            newStatus != actualStatus,\r\n            \"Ce status est deja celui actuel\"\r\n        );\r\n        require(newStatus > actualStatus, \"On ne peut pas revenir en arriere\");\r\n        emit WorkflowStatusChange(actualStatus, newStatus);\r\n        actualStatus = newStatus;\r\n    }\r\n\r\n    //Enregistrement des electeurs par l'administrateur\r\n    function voterRegistered(address _address) public onlyOwner {\r\n        require(\r\n            uint256(actualStatus) == uint256(WorkflowStatus.RegisteringVoters),\r\n            \"La periode d enregistrement a la whitelist est ferme ! \"\r\n        );\r\n        Admin.whitelist(_address);\r\n        emit VoterRegistered(_address);\r\n    }\r\n\r\n    // Enregistrement des propositions\r\n    function registeredProposal(string memory description) public {\r\n        require(\r\n            actualStatus == WorkflowStatus.ProposalsRegistrationStarted,\r\n            \"La periode d enregistrement des propositions est ferme ! \"\r\n        );\r\n        require(Admin.isWhitelisted(msg.sender), \"faux\");\r\n        require(numberProposals < 1000, \"Il y a trop de propositions\");\r\n        proposals.push(Proposal(description, 0));\r\n        emit ProposalRegistered(numberProposals);\r\n        \r\n        numberProposals++;\r\n    }\r\n\r\n    //Les electeurs votent pour la proposition\r\n    function vote(uint256 proposalId) public {\r\n        require(\r\n            actualStatus == WorkflowStatus.VotingSessionStarted,\r\n            \"La session de vote est ferme ! \"\r\n        );\r\n        require(proposalId < numberProposals, \"La proposition n'existe pas\");\r\n        require(!voters[msg.sender].hasVoted, \"Vous avez deja vote\");\r\n        require(Admin.isWhitelisted(msg.sender), \"Vous n etes pas enregistre\");\r\n        voters[msg.sender].isRegistered = Admin.isWhitelisted(msg.sender);\r\n        proposals[proposalId].voteCount++;\r\n        voters[msg.sender].hasVoted = true;\r\n        voters[msg.sender].votedProposalId = proposalId;\r\n\r\n        emit Voted(msg.sender, proposalId);\r\n        \r\n        if(winningProposalId == 0 ){\r\n            winningProposalId = proposalId;\r\n        }\r\n\r\n        if(proposals[proposalId].voteCount > proposals[winningProposalId].voteCount){\r\n            winningProposalId = proposalId;\r\n        }\r\n    }\r\n\r\n    function getProposals() public view returns(Proposal[] memory){\r\n        return proposals;\r\n    } \r\n\r\n    function getWinningProposals()public view returns(Proposal memory){\r\n        return proposals[winningProposalId];\r\n    }\r\n}\r\n",
  "sourcePath": "C:\\wamp64\\www\\learnblockchain\\5. DApp\\DEFI\\contracts\\Voting.sol",
  "compiler": {
    "name": "solc",
    "version": "0.8.11+commit.d7f03943.Emscripten.clang"
  },
  "schemaVersion": "3.4.3",
  "updatedAt": "2022-01-19T16:46:13.114Z",
  "networkType": "ethereum",
  "devdoc": {
    "kind": "dev",
    "methods": {
      "owner()": {
        "details": "Returns the address of the current owner."
      },
      "renounceOwnership()": {
        "details": "Leaves the contract without owner. It will not be possible to call `onlyOwner` functions anymore. Can only be called by the current owner. NOTE: Renouncing ownership will leave the contract without an owner, thereby removing any functionality that is only available to the owner."
      },
      "transferOwnership(address)": {
        "details": "Transfers ownership of the contract to a new account (`newOwner`). Can only be called by the current owner."
      }
    },
    "version": 1
  },
  "userdoc": {
    "kind": "user",
    "methods": {},
    "version": 1
  }
}