{
  "contractName": "SimpleStorage",
  "abi": [
    {
      "inputs": [],
      "name": "get",
      "outputs": [
        {
          "internalType": "uint256",
          "name": "",
          "type": "uint256"
        }
      ],
      "stateMutability": "view",
      "type": "function"
    }
  ],
  "bytecode": "0x608060405234801561001057600080fd5b5060d38061001f6000396000f3fe6080604052348015600f57600080fd5b50600436106045576000357c0100000000000000000000000000000000000000000000000000000000900480636d4ce63c14604a575b600080fd5b60506064565b604051605b91906084565b60405180910390f35b60008054905090565b6000819050919050565b607e81606d565b82525050565b6000602082019050609760008301846077565b9291505056fea26469706673582212204fb1c8ef437b9bbb8c3b6947c2215d958b1b9f3f5a44a1763a877917f62356b264736f6c634300080a0033",
  "immutableReferences": {},
  "source": "// SPDX-License-Identifier: GPL-3.0\npragma solidity 0.8.10;\n \ncontract SimpleStorage {\n   uint data; //Cette variable est intialisé avec une valeur précise\n \n   function get() public view returns (uint) {\n       return data;\n   }\n}",
  "sourcePath": "C:\\wamp64\\www\\learnblockchain\\5. DApp\\Exo - truffle\\contracts\\SimpleStorgare.sol",
  "compiler": {
    "name": "solc",
    "version": "0.8.10+commit.fc410830.Emscripten.clang"
  },
  "schemaVersion": "3.4.3",
  "updatedAt": "2021-12-06T08:20:13.221Z",
  "devdoc": {
    "kind": "dev",
    "methods": {},
    "version": 1
  },
  "userdoc": {
    "kind": "user",
    "methods": {},
    "version": 1
  }
}